{"abi":[{"type":"function","name":"count","inputs":[],"outputs":[{"name":"","type":"uint256","internalType":"uint256"}],"stateMutability":"view"},{"type":"function","name":"decrement","inputs":[],"outputs":[],"stateMutability":"nonpayable"},{"type":"function","name":"increment","inputs":[],"outputs":[],"stateMutability":"nonpayable"},{"type":"function","name":"reset","inputs":[],"outputs":[],"stateMutability":"nonpayable"},{"type":"event","name":"CountChanged","inputs":[{"name":"newCount","type":"uint256","indexed":false,"internalType":"uint256"}],"anonymous":false}],"bytecode":{"object":"0x6080604052348015600e575f5ffd5b506103528061001c5f395ff3fe608060405234801561000f575f5ffd5b506004361061004a575f3560e01c806306661abd1461004e5780632baeceb71461006c578063d09de08a14610076578063d826f88f14610080575b5f5ffd5b61005661008a565b60405161006391906101ca565b60405180910390f35b61007461008f565b005b61007e610122565b005b610088610172565b005b5f5481565b5f5f54116100d2576040517f08c379a00000000000000000000000000000000000000000000000000000000081526004016100c990610263565b60405180910390fd5b5f5f8154809291906100e3906102ae565b91905055507f0ef4482aceb854636f33f9cd319f9e1cd6fe3aa2e60523f3583c287b893824455f5460405161011891906101ca565b60405180910390a1565b5f5f815480929190610133906102d5565b91905055507f0ef4482aceb854636f33f9cd319f9e1cd6fe3aa2e60523f3583c287b893824455f5460405161016891906101ca565b60405180910390a1565b5f5f819055507f0ef4482aceb854636f33f9cd319f9e1cd6fe3aa2e60523f3583c287b893824455f546040516101a891906101ca565b60405180910390a1565b5f819050919050565b6101c4816101b2565b82525050565b5f6020820190506101dd5f8301846101bb565b92915050565b5f82825260208201905092915050565b7f436f756e7465723a2063616e6e6f742064656372656d656e742062656c6f77205f8201527f7a65726f00000000000000000000000000000000000000000000000000000000602082015250565b5f61024d6024836101e3565b9150610258826101f3565b604082019050919050565b5f6020820190508181035f83015261027a81610241565b9050919050565b7f4e487b71000000000000000000000000000000000000000000000000000000005f52601160045260245ffd5b5f6102b8826101b2565b91505f82036102ca576102c9610281565b5b600182039050919050565b5f6102df826101b2565b91507fffffffffffffffffffffffffffffffffffffffffffffffffffffffffffffffff820361031157610310610281565b5b60018201905091905056fea26469706673582212204b515a71710a5d5b8f668af7c42e9c52eac77d89a2bd90bcda034fc91e8d4c0b64736f6c63430008210033","linkReferences":{}},"methodIdentifiers":{"count()":"06661abd","decrement()":"2baeceb7","increment()":"d09de08a","reset()":"d826f88f"},"id":19}