{"abi":[{"type":"function","name":"count","inputs":[],"outputs":[{"name":"","type":"uint256","internalType":"uint256"}],"stateMutability":"view"},{"type":"function","name":"decrement","inputs":[],"outputs":[],"stateMutability":"nonpayable"},{"type":"function","name":"increment","inputs":[],"outputs":[],"stateMutability":"nonpayable"},{"type":"function","name":"reset","inputs":[],"outputs":[],"stateMutability":"nonpayable"},{"type":"event","name":"CountChanged","inputs":[{"name":"newCount","type":"uint256","indexed":false,"internalType":"uint256"}],"anonymous":false}],"bytecode":{"object":"0x608060405234601c57600e6020565b6104c161002b82396104c190f35b6026565b60405190565b5f80fdfe60806040526004361015610013575b6101b2565b61001d5f3561005c565b806306661abd146100575780632baeceb714610052578063d09de08a1461004d5763d826f88f0361000e5761017f565b61014c565b610119565b6100df565b60e01c90565b60405190565b5f80fd5b5f80fd5b5f91031261007a57565b61006c565b1c90565b90565b61009690600861009b930261007f565b610083565b90565b906100a99154610086565b90565b6100b75f5f9061009e565b90565b90565b6100c6906100ba565b9052565b91906100dd905f602085019401906100bd565b565b3461010f576100ef366004610070565b61010b6100fa6100ac565b610102610062565b918291826100ca565b0390f35b610068565b5f0190565b3461014757610129366004610070565b610131610339565b610139610062565b8061014381610114565b0390f35b610068565b3461017a5761015c366004610070565b6101646103d7565b61016c610062565b8061017681610114565b0390f35b610068565b346101ad5761018f366004610070565b610197610435565b61019f610062565b806101a981610114565b0390f35b610068565b5f80fd5b5f1c90565b6101c76101cc916101b6565b610083565b90565b6101d990546101bb565b90565b90565b90565b6101f66101f16101fb926101dc565b6101df565b6100ba565b90565b60209181520190565b60207f7a65726f00000000000000000000000000000000000000000000000000000000917f436f756e7465723a2063616e6e6f742064656372656d656e742062656c6f77205f8201520152565b61026160246040926101fe565b61026a81610207565b0190565b6102839060208101905f818303910152610254565b90565b1561028d57565b610295610062565b62461bcd60e51b8152806102ab6004820161026e565b0390fd5b634e487b7160e01b5f52601160045260245ffd5b6102cc906100ba565b5f81146102da576001900390565b6102af565b5f1b90565b906102f05f19916102df565b9181191691161790565b61030e610309610313926100ba565b6101df565b6100ba565b90565b90565b9061032e610329610335926102fa565b610316565b82546102e4565b9055565b61035d6103455f6101cf565b6103576103515f6101e2565b916100ba565b11610286565b61037761037161036c5f6101cf565b6102c3565b5f610319565b6103805f6101cf565b6103b67f0ef4482aceb854636f33f9cd319f9e1cd6fe3aa2e60523f3583c287b89382445916103ad610062565b918291826100ca565b0390a1565b6103c4906100ba565b5f1981146103d25760010190565b6102af565b6103f16103eb6103e65f6101cf565b6103bb565b5f610319565b6103fa5f6101cf565b6104307f0ef4482aceb854636f33f9cd319f9e1cd6fe3aa2e60523f3583c287b8938244591610427610062565b918291826100ca565b0390a1565b6104476104415f6101e2565b5f610319565b6104505f6101cf565b6104867f0ef4482aceb854636f33f9cd319f9e1cd6fe3aa2e60523f3583c287b893824459161047d610062565b918291826100ca565b0390a156fea26469706673582212202f47ac080eba441271e7e0a70b7a886a29ddcb76cf8a62644d2e04e3f358efb064736f6c63430008210033","linkReferences":{}},"methodIdentifiers":{"count()":"06661abd","decrement()":"2baeceb7","increment()":"d09de08a","reset()":"d826f88f"},"id":20}